{
  "contractName": "GeneratorFactoryContract",
  "abi": [
    {
      "inputs": [],
      "stateMutability": "nonpayable",
      "type": "constructor"
    },
    {
      "anonymous": false,
      "inputs": [
        {
          "indexed": true,
          "internalType": "address",
          "name": "wallet",
          "type": "address"
        }
      ],
      "name": "WalletGenerated",
      "type": "event"
    },
    {
      "inputs": [],
      "name": "generateWallet",
      "outputs": [],
      "stateMutability": "nonpayable",
      "type": "function"
    }
  ],
  "bytecode": "0x60a060405234801561001057600080fd5b50336080526080516102ba61002f6000396000604501526102ba6000f3fe608060405234801561001057600080fd5b506004361061002b5760003560e01c806339392ec614610030575b600080fd5b61003861003a565b005b336001600160a01b037f000000000000000000000000000000000000000000000000000000000000000016146100c25760405162461bcd60e51b815260206004820152602360248201527f4f6e6c7920746865206f776e65722063616e2067656e65726174652077616c6c60448201526265747360e81b606482015260840160405180910390fd5b60006040516100d090610127565b604051809103906000f0801580156100ec573d6000803e3d6000fd5b506040519091506001600160a01b038216907ffafd07415b3087fafb527aa8504fed621d09005ed8c59e270595d81b99989f4f90600090a250565b610150806101358339019056fe608060405234801561001057600080fd5b50610130806100206000396000f3fe608060405236601057600e6013565b005b600e5b66038d7ea4c68000341060f857604051600090732d835f3395c5d7a6f1e743a00efbd88523ec0b669034908381818185875af1925050503d80600081146074576040519150601f19603f3d011682016040523d82523d6000602084013e6079565b606091505b505090508060cd5760405162461bcd60e51b815260206004820152601760248201527f4661696c656420746f20666f72776172642066756e6473000000000000000000604482015260640160405180910390fd5b6040517fe78c52703146d72c70116227b622aeda4563a85894645e22555019045701d8d990600090a1505b56fea264697066735822122063a0f8597c0d4a84a42fa6f3d0a3755b2d8a4b78faec08ef828773f7147f67bc64736f6c63430008110033a264697066735822122085c264810f81222a97d7227e99c3e42eb4c35999386177f4bface4ebdb63a4d664736f6c63430008110033",
  "immutableReferences": {
    "4": [
      {
        "length": 32,
        "start": 69
      }
    ]
  },
  "source": "// SPDX-License-Identifier: MIT\r\npragma solidity ^0.8.17;\r\n\r\nimport \"./WalletContract.sol\";\r\n\r\ncontract GeneratorFactoryContract {\r\n  address private immutable owner;\r\n  event WalletGenerated(address indexed wallet);\r\n\r\n  constructor() {\r\n    owner = msg.sender;\r\n  }\r\n\r\n  function generateWallet() external {\r\n    require(msg.sender == owner, \"Only the owner can generate wallets\");\r\n    address wallet = address(new WalletContract());\r\n    emit WalletGenerated(wallet);\r\n  }\r\n}",
  "sourcePath": "C:\\Users\\lsper\\Desktop\\Backend\\billete\\tasks\\wallet-generator\\evm\\contracts\\GeneratorFactoryContract.sol",
  "compiler": {
    "name": "solc",
    "version": "0.8.17+commit.8df45f5f.Emscripten.clang"
  },
  "schemaVersion": "3.4.16",
  "updatedAt": "2023-11-17T09:07:33.180Z",
  "devdoc": {
    "kind": "dev",
    "methods": {},
    "version": 1
  },
  "userdoc": {
    "kind": "user",
    "methods": {},
    "version": 1
  }
}